{
  "_format": "hh-sol-artifact-1",
  "contractName": "LandNFT",
  "sourceName": "contracts/LandNFT.sol",
  "abi": [
    {
      "inputs": [],
      "stateMutability": "nonpayable",
      "type": "constructor"
    },
    {
      "inputs": [],
      "name": "ERC721EnumerableForbiddenBatchMint",
      "type": "error"
    },
    {
      "inputs": [
        {
          "internalType": "address",
          "name": "sender",
          "type": "address"
        },
        {
          "internalType": "uint256",
          "name": "tokenId",
          "type": "uint256"
        },
        {
          "internalType": "address",
          "name": "owner",
          "type": "address"
        }
      ],
      "name": "ERC721IncorrectOwner",
      "type": "error"
    },
    {
      "inputs": [
        {
          "internalType": "address",
          "name": "operator",
          "type": "address"
        },
        {
          "internalType": "uint256",
          "name": "tokenId",
          "type": "uint256"
        }
      ],
      "name": "ERC721InsufficientApproval",
      "type": "error"
    },
    {
      "inputs": [
        {
          "internalType": "address",
          "name": "approver",
          "type": "address"
        }
      ],
      "name": "ERC721InvalidApprover",
      "type": "error"
    },
    {
      "inputs": [
        {
          "internalType": "address",
          "name": "operator",
          "type": "address"
        }
      ],
      "name": "ERC721InvalidOperator",
      "type": "error"
    },
    {
      "inputs": [
        {
          "internalType": "address",
          "name": "owner",
          "type": "address"
        }
      ],
      "name": "ERC721InvalidOwner",
      "type": "error"
    },
    {
      "inputs": [
        {
          "internalType": "address",
          "name": "receiver",
          "type": "address"
        }
      ],
      "name": "ERC721InvalidReceiver",
      "type": "error"
    },
    {
      "inputs": [
        {
          "internalType": "address",
          "name": "sender",
          "type": "address"
        }
      ],
      "name": "ERC721InvalidSender",
      "type": "error"
    },
    {
      "inputs": [
        {
          "internalType": "uint256",
          "name": "tokenId",
          "type": "uint256"
        }
      ],
      "name": "ERC721NonexistentToken",
      "type": "error"
    },
    {
      "inputs": [
        {
          "internalType": "address",
          "name": "owner",
          "type": "address"
        },
        {
          "internalType": "uint256",
          "name": "index",
          "type": "uint256"
        }
      ],
      "name": "ERC721OutOfBoundsIndex",
      "type": "error"
    },
    {
      "anonymous": false,
      "inputs": [
        {
          "indexed": true,
          "internalType": "address",
          "name": "owner",
          "type": "address"
        },
        {
          "indexed": true,
          "internalType": "address",
          "name": "approved",
          "type": "address"
        },
        {
          "indexed": true,
          "internalType": "uint256",
          "name": "tokenId",
          "type": "uint256"
        }
      ],
      "name": "Approval",
      "type": "event"
    },
    {
      "anonymous": false,
      "inputs": [
        {
          "indexed": true,
          "internalType": "address",
          "name": "owner",
          "type": "address"
        },
        {
          "indexed": true,
          "internalType": "address",
          "name": "operator",
          "type": "address"
        },
        {
          "indexed": false,
          "internalType": "bool",
          "name": "approved",
          "type": "bool"
        }
      ],
      "name": "ApprovalForAll",
      "type": "event"
    },
    {
      "anonymous": false,
      "inputs": [
        {
          "indexed": false,
          "internalType": "uint256",
          "name": "_fromTokenId",
          "type": "uint256"
        },
        {
          "indexed": false,
          "internalType": "uint256",
          "name": "_toTokenId",
          "type": "uint256"
        }
      ],
      "name": "BatchMetadataUpdate",
      "type": "event"
    },
    {
      "anonymous": false,
      "inputs": [
        {
          "indexed": true,
          "internalType": "uint256",
          "name": "tokenId",
          "type": "uint256"
        },
        {
          "indexed": true,
          "internalType": "address",
          "name": "buyer",
          "type": "address"
        }
      ],
      "name": "LandPurchased",
      "type": "event"
    },
    {
      "anonymous": false,
      "inputs": [
        {
          "indexed": false,
          "internalType": "uint256",
          "name": "_tokenId",
          "type": "uint256"
        }
      ],
      "name": "MetadataUpdate",
      "type": "event"
    },
    {
      "anonymous": false,
      "inputs": [
        {
          "indexed": true,
          "internalType": "address",
          "name": "from",
          "type": "address"
        },
        {
          "indexed": true,
          "internalType": "address",
          "name": "to",
          "type": "address"
        },
        {
          "indexed": true,
          "internalType": "uint256",
          "name": "tokenId",
          "type": "uint256"
        }
      ],
      "name": "Transfer",
      "type": "event"
    },
    {
      "inputs": [
        {
          "internalType": "address",
          "name": "to",
          "type": "address"
        },
        {
          "internalType": "uint256",
          "name": "tokenId",
          "type": "uint256"
        }
      ],
      "name": "approve",
      "outputs": [],
      "stateMutability": "nonpayable",
      "type": "function"
    },
    {
      "inputs": [
        {
          "internalType": "address",
          "name": "owner",
          "type": "address"
        }
      ],
      "name": "balanceOf",
      "outputs": [
        {
          "internalType": "uint256",
          "name": "",
          "type": "uint256"
        }
      ],
      "stateMutability": "view",
      "type": "function"
    },
    {
      "inputs": [
        {
          "internalType": "uint256",
          "name": "tokenId",
          "type": "uint256"
        }
      ],
      "name": "getApproved",
      "outputs": [
        {
          "internalType": "address",
          "name": "",
          "type": "address"
        }
      ],
      "stateMutability": "view",
      "type": "function"
    },
    {
      "inputs": [],
      "name": "govAddress",
      "outputs": [
        {
          "internalType": "address",
          "name": "",
          "type": "address"
        }
      ],
      "stateMutability": "view",
      "type": "function"
    },
    {
      "inputs": [
        {
          "internalType": "address",
          "name": "owner",
          "type": "address"
        },
        {
          "internalType": "address",
          "name": "operator",
          "type": "address"
        }
      ],
      "name": "isApprovedForAll",
      "outputs": [
        {
          "internalType": "bool",
          "name": "",
          "type": "bool"
        }
      ],
      "stateMutability": "view",
      "type": "function"
    },
    {
      "inputs": [
        {
          "internalType": "string",
          "name": "cid",
          "type": "string"
        }
      ],
      "name": "mintLand",
      "outputs": [
        {
          "internalType": "uint256",
          "name": "",
          "type": "uint256"
        }
      ],
      "stateMutability": "nonpayable",
      "type": "function"
    },
    {
      "inputs": [],
      "name": "name",
      "outputs": [
        {
          "internalType": "string",
          "name": "",
          "type": "string"
        }
      ],
      "stateMutability": "view",
      "type": "function"
    },
    {
      "inputs": [
        {
          "internalType": "uint256",
          "name": "tokenId",
          "type": "uint256"
        }
      ],
      "name": "ownerOf",
      "outputs": [
        {
          "internalType": "address",
          "name": "",
          "type": "address"
        }
      ],
      "stateMutability": "view",
      "type": "function"
    },
    {
      "inputs": [
        {
          "internalType": "uint256",
          "name": "tokenId",
          "type": "uint256"
        }
      ],
      "name": "purchaseLand",
      "outputs": [],
      "stateMutability": "nonpayable",
      "type": "function"
    },
    {
      "inputs": [
        {
          "internalType": "address",
          "name": "from",
          "type": "address"
        },
        {
          "internalType": "address",
          "name": "to",
          "type": "address"
        },
        {
          "internalType": "uint256",
          "name": "tokenId",
          "type": "uint256"
        }
      ],
      "name": "safeTransferFrom",
      "outputs": [],
      "stateMutability": "nonpayable",
      "type": "function"
    },
    {
      "inputs": [
        {
          "internalType": "address",
          "name": "from",
          "type": "address"
        },
        {
          "internalType": "address",
          "name": "to",
          "type": "address"
        },
        {
          "internalType": "uint256",
          "name": "tokenId",
          "type": "uint256"
        },
        {
          "internalType": "bytes",
          "name": "data",
          "type": "bytes"
        }
      ],
      "name": "safeTransferFrom",
      "outputs": [],
      "stateMutability": "nonpayable",
      "type": "function"
    },
    {
      "inputs": [
        {
          "internalType": "address",
          "name": "operator",
          "type": "address"
        },
        {
          "internalType": "bool",
          "name": "approved",
          "type": "bool"
        }
      ],
      "name": "setApprovalForAll",
      "outputs": [],
      "stateMutability": "nonpayable",
      "type": "function"
    },
    {
      "inputs": [
        {
          "internalType": "bytes4",
          "name": "interfaceId",
          "type": "bytes4"
        }
      ],
      "name": "supportsInterface",
      "outputs": [
        {
          "internalType": "bool",
          "name": "",
          "type": "bool"
        }
      ],
      "stateMutability": "view",
      "type": "function"
    },
    {
      "inputs": [],
      "name": "symbol",
      "outputs": [
        {
          "internalType": "string",
          "name": "",
          "type": "string"
        }
      ],
      "stateMutability": "view",
      "type": "function"
    },
    {
      "inputs": [
        {
          "internalType": "uint256",
          "name": "index",
          "type": "uint256"
        }
      ],
      "name": "tokenByIndex",
      "outputs": [
        {
          "internalType": "uint256",
          "name": "",
          "type": "uint256"
        }
      ],
      "stateMutability": "view",
      "type": "function"
    },
    {
      "inputs": [
        {
          "internalType": "address",
          "name": "owner",
          "type": "address"
        },
        {
          "internalType": "uint256",
          "name": "index",
          "type": "uint256"
        }
      ],
      "name": "tokenOfOwnerByIndex",
      "outputs": [
        {
          "internalType": "uint256",
          "name": "",
          "type": "uint256"
        }
      ],
      "stateMutability": "view",
      "type": "function"
    },
    {
      "inputs": [
        {
          "internalType": "uint256",
          "name": "tokenId",
          "type": "uint256"
        }
      ],
      "name": "tokenURI",
      "outputs": [
        {
          "internalType": "string",
          "name": "",
          "type": "string"
        }
      ],
      "stateMutability": "view",
      "type": "function"
    },
    {
      "inputs": [],
      "name": "totalSupply",
      "outputs": [
        {
          "internalType": "uint256",
          "name": "",
          "type": "uint256"
        }
      ],
      "stateMutability": "view",
      "type": "function"
    },
    {
      "inputs": [
        {
          "internalType": "address",
          "name": "from",
          "type": "address"
        },
        {
          "internalType": "address",
          "name": "to",
          "type": "address"
        },
        {
          "internalType": "uint256",
          "name": "tokenId",
          "type": "uint256"
        }
      ],
      "name": "transferFrom",
      "outputs": [],
      "stateMutability": "nonpayable",
      "type": "function"
    },
    {
      "inputs": [
        {
          "internalType": "uint256",
          "name": "tokenId",
          "type": "uint256"
        },
        {
          "internalType": "string",
          "name": "newCid",
          "type": "string"
        }
      ],
      "name": "updateTokenURI",
      "outputs": [],
      "stateMutability": "nonpayable",
      "type": "function"
    }
  ],
  "bytecode": "0x608060405234801561001057600080fd5b506040518060400160405280600781526020017f4c616e644e4654000000000000000000000000000000000000000000000000008152506040518060400160405280600481526020017f4c414e4400000000000000000000000000000000000000000000000000000000815250816000908161008c919061033d565b50806001908161009c919061033d565b50505033600c60006101000a81548173ffffffffffffffffffffffffffffffffffffffff021916908373ffffffffffffffffffffffffffffffffffffffff1602179055506000600b8190555061040f565b600081519050919050565b7f4e487b7100000000000000000000000000000000000000000000000000000000600052604160045260246000fd5b7f4e487b7100000000000000000000000000000000000000000000000000000000600052602260045260246000fd5b6000600282049050600182168061016e57607f821691505b60208210810361018157610180610127565b5b50919050565b60008190508160005260206000209050919050565b60006020601f8301049050919050565b600082821b905092915050565b6000600883026101e97fffffffffffffffffffffffffffffffffffffffffffffffffffffffffffffffff826101ac565b6101f386836101ac565b95508019841693508086168417925050509392505050565b6000819050919050565b6000819050919050565b600061023a6102356102308461020b565b610215565b61020b565b9050919050565b6000819050919050565b6102548361021f565b61026861026082610241565b8484546101b9565b825550505050565b600090565b61027d610270565b61028881848461024b565b505050565b5b818110156102ac576102a1600082610275565b60018101905061028e565b5050565b601f8211156102f1576102c281610187565b6102cb8461019c565b810160208510156102da578190505b6102ee6102e68561019c565b83018261028d565b50505b505050565b600082821c905092915050565b6000610314600019846008026102f6565b1980831691505092915050565b600061032d8383610303565b9150826002028217905092915050565b610346826100ed565b67ffffffffffffffff81111561035f5761035e6100f8565b5b6103698254610156565b6103748282856102b0565b600060209050601f8311600181146103a75760008415610395578287015190505b61039f8582610321565b865550610407565b601f1984166103b586610187565b60005b828110156103dd578489015182556001820191506020850194506020810190506103b8565b868310156103fa57848901516103f6601f891682610303565b8355505b6001600288020188555050505b505050505050565b6130098061041e6000396000f3fe608060405234801561001057600080fd5b506004361061012c5760003560e01c80634f6ccce7116100ad578063a027c4e811610071578063a027c4e814610355578063a22cb46514610385578063b88d4fde146103a1578063c87b56dd146103bd578063e985e9c5146103ed5761012c565b80634f6ccce71461028b5780636352211e146102bb57806370a08231146102eb5780638009d5d71461031b57806395d89b41146103375761012c565b806318e97fd1116100f457806318e97fd1146101e957806323b872dd146102055780632f745c591461022157806342842e0e1461025157806346008a071461026d5761012c565b806301ffc9a71461013157806306fdde0314610161578063081812fc1461017f578063095ea7b3146101af57806318160ddd146101cb575b600080fd5b61014b600480360381019061014691906122e7565b61041d565b604051610158919061232f565b60405180910390f35b61016961042f565b60405161017691906123da565b60405180910390f35b61019960048036038101906101949190612432565b6104c1565b6040516101a691906124a0565b60405180910390f35b6101c960048036038101906101c491906124e7565b6104dd565b005b6101d36104f3565b6040516101e09190612536565b60405180910390f35b61020360048036038101906101fe91906125b6565b610500565b005b61021f600480360381019061021a9190612616565b6105e3565b005b61023b600480360381019061023691906124e7565b6106e5565b6040516102489190612536565b60405180910390f35b61026b60048036038101906102669190612616565b61078e565b005b6102756107ae565b60405161028291906124a0565b60405180910390f35b6102a560048036038101906102a09190612432565b6107d4565b6040516102b29190612536565b60405180910390f35b6102d560048036038101906102d09190612432565b61084a565b6040516102e291906124a0565b60405180910390f35b61030560048036038101906103009190612669565b61085c565b6040516103129190612536565b60405180910390f35b61033560048036038101906103309190612432565b610916565b005b61033f610a22565b60405161034c91906123da565b60405180910390f35b61036f600480360381019061036a9190612696565b610ab4565b60405161037c9190612536565b60405180910390f35b61039f600480360381019061039a919061270f565b610b58565b005b6103bb60048036038101906103b6919061287f565b610b6e565b005b6103d760048036038101906103d29190612432565b610b93565b6040516103e491906123da565b60405180910390f35b61040760048036038101906104029190612902565b610ba5565b604051610414919061232f565b60405180910390f35b600061042882610c39565b9050919050565b60606000805461043e90612971565b80601f016020809104026020016040519081016040528092919081815260200182805461046a90612971565b80156104b75780601f1061048c576101008083540402835291602001916104b7565b820191906000526020600020905b81548152906001019060200180831161049a57829003601f168201915b5050505050905090565b60006104cc82610c9a565b506104d682610d22565b9050919050565b6104ef82826104ea610d5f565b610d67565b5050565b6000600880549050905090565b600c60009054906101000a900473ffffffffffffffffffffffffffffffffffffffff1673ffffffffffffffffffffffffffffffffffffffff163373ffffffffffffffffffffffffffffffffffffffff1614610590576040517f08c379a0000000000000000000000000000000000000000000000000000000008152600401610587906129ee565b60405180910390fd5b6105de8383838080601f016020809104026020016040519081016040528093929190818152602001838380828437600081840152601f19601f82011690508083019250505050505050610d79565b505050565b600073ffffffffffffffffffffffffffffffffffffffff168273ffffffffffffffffffffffffffffffffffffffff16036106555760006040517f64a0ae9200000000000000000000000000000000000000000000000000000000815260040161064c91906124a0565b60405180910390fd5b60006106698383610664610d5f565b610dd5565b90508373ffffffffffffffffffffffffffffffffffffffff168173ffffffffffffffffffffffffffffffffffffffff16146106df578382826040517f64283d7b0000000000000000000000000000000000000000000000000000000081526004016106d693929190612a0e565b60405180910390fd5b50505050565b60006106f08361085c565b82106107355782826040517fa57d13dc00000000000000000000000000000000000000000000000000000000815260040161072c929190612a45565b60405180910390fd5b600660008473ffffffffffffffffffffffffffffffffffffffff1673ffffffffffffffffffffffffffffffffffffffff168152602001908152602001600020600083815260200190815260200160002054905092915050565b6107a983838360405180602001604052806000815250610b6e565b505050565b600c60009054906101000a900473ffffffffffffffffffffffffffffffffffffffff1681565b60006107de6104f3565b8210610824576000826040517fa57d13dc00000000000000000000000000000000000000000000000000000000815260040161081b929190612a45565b60405180910390fd5b6008828154811061083857610837612a6e565b5b90600052602060002001549050919050565b600061085582610c9a565b9050919050565b60008073ffffffffffffffffffffffffffffffffffffffff168273ffffffffffffffffffffffffffffffffffffffff16036108cf5760006040517f89c62b640000000000000000000000000000000000000000000000000000000081526004016108c691906124a0565b60405180910390fd5b600360008373ffffffffffffffffffffffffffffffffffffffff1673ffffffffffffffffffffffffffffffffffffffff168152602001908152602001600020549050919050565b600c60009054906101000a900473ffffffffffffffffffffffffffffffffffffffff1673ffffffffffffffffffffffffffffffffffffffff166109588261084a565b73ffffffffffffffffffffffffffffffffffffffff16146109ae576040517f08c379a00000000000000000000000000000000000000000000000000000000081526004016109a590612ae9565b60405180910390fd5b6109db600c60009054906101000a900473ffffffffffffffffffffffffffffffffffffffff163383610deb565b3373ffffffffffffffffffffffffffffffffffffffff16817f349dfbfc5131b8cc0d98594c2fbb93e8c6bba0486d6bd50dde81212bf50ad2cc60405160405180910390a350565b606060018054610a3190612971565b80601f0160208091040260200160405190810160405280929190818152602001828054610a5d90612971565b8015610aaa5780601f10610a7f57610100808354040283529160200191610aaa565b820191906000526020600020905b815481529060010190602001808311610a8d57829003601f168201915b5050505050905090565b600080600b549050610ae8600c60009054906101000a900473ffffffffffffffffffffffffffffffffffffffff1682610f58565b610b368185858080601f016020809104026020016040519081016040528093929190818152602001838380828437600081840152601f19601f82011690508083019250505050505050610d79565b600b6000815480929190610b4990612b38565b91905055508091505092915050565b610b6a610b63610d5f565b8383610f76565b5050565b610b798484846105e3565b610b8d610b84610d5f565b858585856110e5565b50505050565b6060610b9e82611296565b9050919050565b6000600560008473ffffffffffffffffffffffffffffffffffffffff1673ffffffffffffffffffffffffffffffffffffffff16815260200190815260200160002060008373ffffffffffffffffffffffffffffffffffffffff1673ffffffffffffffffffffffffffffffffffffffff16815260200190815260200160002060009054906101000a900460ff16905092915050565b6000634906490660e01b7bffffffffffffffffffffffffffffffffffffffffffffffffffffffff1916827bffffffffffffffffffffffffffffffffffffffffffffffffffffffff19161480610c935750610c92826113a9565b5b9050919050565b600080610ca683611423565b9050600073ffffffffffffffffffffffffffffffffffffffff168173ffffffffffffffffffffffffffffffffffffffff1603610d1957826040517f7e273289000000000000000000000000000000000000000000000000000000008152600401610d109190612536565b60405180910390fd5b80915050919050565b60006004600083815260200190815260200160002060009054906101000a900473ffffffffffffffffffffffffffffffffffffffff169050919050565b600033905090565b610d748383836001611460565b505050565b80600a60008481526020019081526020016000209081610d999190612d2c565b507ff8e1a15aba9398e019f0b49df1a4fde98ee17ae345cb5f6b5e2c27f5033e8ce782604051610dc99190612536565b60405180910390a15050565b6000610de2848484611625565b90509392505050565b600073ffffffffffffffffffffffffffffffffffffffff168273ffffffffffffffffffffffffffffffffffffffff1603610e5d5760006040517f64a0ae92000000000000000000000000000000000000000000000000000000008152600401610e5491906124a0565b60405180910390fd5b6000610e6b83836000610dd5565b9050600073ffffffffffffffffffffffffffffffffffffffff168173ffffffffffffffffffffffffffffffffffffffff1603610ede57816040517f7e273289000000000000000000000000000000000000000000000000000000008152600401610ed59190612536565b60405180910390fd5b8373ffffffffffffffffffffffffffffffffffffffff168173ffffffffffffffffffffffffffffffffffffffff1614610f52578382826040517f64283d7b000000000000000000000000000000000000000000000000000000008152600401610f4993929190612a0e565b60405180910390fd5b50505050565b610f72828260405180602001604052806000815250611742565b5050565b600073ffffffffffffffffffffffffffffffffffffffff168273ffffffffffffffffffffffffffffffffffffffff1603610fe757816040517f5b08ba18000000000000000000000000000000000000000000000000000000008152600401610fde91906124a0565b60405180910390fd5b80600560008573ffffffffffffffffffffffffffffffffffffffff1673ffffffffffffffffffffffffffffffffffffffff16815260200190815260200160002060008473ffffffffffffffffffffffffffffffffffffffff1673ffffffffffffffffffffffffffffffffffffffff16815260200190815260200160002060006101000a81548160ff0219169083151502179055508173ffffffffffffffffffffffffffffffffffffffff168373ffffffffffffffffffffffffffffffffffffffff167f17307eab39ab6107e8899845ad3d59bd9653f200f220920489ca2b5937696c31836040516110d8919061232f565b60405180910390a3505050565b60008373ffffffffffffffffffffffffffffffffffffffff163b111561128f578273ffffffffffffffffffffffffffffffffffffffff1663150b7a02868685856040518563ffffffff1660e01b81526004016111449493929190612e53565b6020604051808303816000875af192505050801561118057506040513d601f19601f8201168201806040525081019061117d9190612eb4565b60015b611204573d80600081146111b0576040519150601f19603f3d011682016040523d82523d6000602084013e6111b5565b606091505b5060008151036111fc57836040517f64a0ae920000000000000000000000000000000000000000000000000000000081526004016111f391906124a0565b60405180910390fd5b805181602001fd5b63150b7a0260e01b7bffffffffffffffffffffffffffffffffffffffffffffffffffffffff1916817bffffffffffffffffffffffffffffffffffffffffffffffffffffffff19161461128d57836040517f64a0ae9200000000000000000000000000000000000000000000000000000000815260040161128491906124a0565b60405180910390fd5b505b5050505050565b60606112a182610c9a565b506000600a600084815260200190815260200160002080546112c290612971565b80601f01602080910402602001604051908101604052809291908181526020018280546112ee90612971565b801561133b5780601f106113105761010080835404028352916020019161133b565b820191906000526020600020905b81548152906001019060200180831161131e57829003601f168201915b50505050509050600061134c611766565b905060008151036113615781925050506113a4565b60008251111561139657808260405160200161137e929190612f1d565b604051602081830303815290604052925050506113a4565b61139f8461177d565b925050505b919050565b60007f780e9d63000000000000000000000000000000000000000000000000000000007bffffffffffffffffffffffffffffffffffffffffffffffffffffffff1916827bffffffffffffffffffffffffffffffffffffffffffffffffffffffff1916148061141c575061141b826117e6565b5b9050919050565b60006002600083815260200190815260200160002060009054906101000a900473ffffffffffffffffffffffffffffffffffffffff169050919050565b80806114995750600073ffffffffffffffffffffffffffffffffffffffff168273ffffffffffffffffffffffffffffffffffffffff1614155b156115cd5760006114a984610c9a565b9050600073ffffffffffffffffffffffffffffffffffffffff168373ffffffffffffffffffffffffffffffffffffffff161415801561151457508273ffffffffffffffffffffffffffffffffffffffff168173ffffffffffffffffffffffffffffffffffffffff1614155b801561152757506115258184610ba5565b155b1561156957826040517fa9fbf51f00000000000000000000000000000000000000000000000000000000815260040161156091906124a0565b60405180910390fd5b81156115cb57838573ffffffffffffffffffffffffffffffffffffffff168273ffffffffffffffffffffffffffffffffffffffff167f8c5be1e5ebec7d5bd14f71427d1e84f3dd0314c0f7b2291e5b200ac8c7c3b92560405160405180910390a45b505b836004600085815260200190815260200160002060006101000a81548173ffffffffffffffffffffffffffffffffffffffff021916908373ffffffffffffffffffffffffffffffffffffffff16021790555050505050565b6000806116338585856118c8565b9050600073ffffffffffffffffffffffffffffffffffffffff168173ffffffffffffffffffffffffffffffffffffffff16036116775761167284611ae2565b6116b6565b8473ffffffffffffffffffffffffffffffffffffffff168173ffffffffffffffffffffffffffffffffffffffff16146116b5576116b48185611b2b565b5b5b600073ffffffffffffffffffffffffffffffffffffffff168573ffffffffffffffffffffffffffffffffffffffff16036116f8576116f384611c16565b611737565b8473ffffffffffffffffffffffffffffffffffffffff168173ffffffffffffffffffffffffffffffffffffffff1614611736576117358585611ce7565b5b5b809150509392505050565b61174c8383611d72565b611761611757610d5f565b60008585856110e5565b505050565b606060405180602001604052806000815250905090565b606061178882610c9a565b506000611793611766565b905060008151116117b357604051806020016040528060008152506117de565b806117bd84611e6b565b6040516020016117ce929190612f1d565b6040516020818303038152906040525b915050919050565b60007f80ac58cd000000000000000000000000000000000000000000000000000000007bffffffffffffffffffffffffffffffffffffffffffffffffffffffff1916827bffffffffffffffffffffffffffffffffffffffffffffffffffffffff191614806118b157507f5b5e139f000000000000000000000000000000000000000000000000000000007bffffffffffffffffffffffffffffffffffffffffffffffffffffffff1916827bffffffffffffffffffffffffffffffffffffffffffffffffffffffff1916145b806118c157506118c082611f39565b5b9050919050565b6000806118d484611423565b9050600073ffffffffffffffffffffffffffffffffffffffff168373ffffffffffffffffffffffffffffffffffffffff161461191657611915818486611fa3565b5b600073ffffffffffffffffffffffffffffffffffffffff168173ffffffffffffffffffffffffffffffffffffffff16146119a757611958600085600080611460565b6001600360008373ffffffffffffffffffffffffffffffffffffffff1673ffffffffffffffffffffffffffffffffffffffff168152602001908152602001600020600082825403925050819055505b600073ffffffffffffffffffffffffffffffffffffffff168573ffffffffffffffffffffffffffffffffffffffff1614611a2a576001600360008773ffffffffffffffffffffffffffffffffffffffff1673ffffffffffffffffffffffffffffffffffffffff168152602001908152602001600020600082825401925050819055505b846002600086815260200190815260200160002060006101000a81548173ffffffffffffffffffffffffffffffffffffffff021916908373ffffffffffffffffffffffffffffffffffffffff160217905550838573ffffffffffffffffffffffffffffffffffffffff168273ffffffffffffffffffffffffffffffffffffffff167fddf252ad1be2c89b69c2b068fc378daa952ba7f163c4a11628f55a4df523b3ef60405160405180910390a4809150509392505050565b6008805490506009600083815260200190815260200160002081905550600881908060018154018082558091505060019003906000526020600020016000909190919091505550565b6000611b368361085c565b90506000600760008481526020019081526020016000205490506000600660008673ffffffffffffffffffffffffffffffffffffffff1673ffffffffffffffffffffffffffffffffffffffff1681526020019081526020016000209050828214611be25760008160008581526020019081526020016000205490508082600085815260200190815260200160002081905550826007600083815260200190815260200160002081905550505b6007600085815260200190815260200160002060009055806000848152602001908152602001600020600090555050505050565b60006001600880549050611c2a9190612f41565b9050600060096000848152602001908152602001600020549050600060088381548110611c5a57611c59612a6e565b5b906000526020600020015490508060088381548110611c7c57611c7b612a6e565b5b906000526020600020018190555081600960008381526020019081526020016000208190555060096000858152602001908152602001600020600090556008805480611ccb57611cca612f75565b5b6001900381819060005260206000200160009055905550505050565b60006001611cf48461085c565b611cfe9190612f41565b905081600660008573ffffffffffffffffffffffffffffffffffffffff1673ffffffffffffffffffffffffffffffffffffffff168152602001908152602001600020600083815260200190815260200160002081905550806007600084815260200190815260200160002081905550505050565b600073ffffffffffffffffffffffffffffffffffffffff168273ffffffffffffffffffffffffffffffffffffffff1603611de45760006040517f64a0ae92000000000000000000000000000000000000000000000000000000008152600401611ddb91906124a0565b60405180910390fd5b6000611df283836000610dd5565b9050600073ffffffffffffffffffffffffffffffffffffffff168173ffffffffffffffffffffffffffffffffffffffff1614611e665760006040517f73c6ac6e000000000000000000000000000000000000000000000000000000008152600401611e5d91906124a0565b60405180910390fd5b505050565b606060006001611e7a84612067565b01905060008167ffffffffffffffff811115611e9957611e98612754565b5b6040519080825280601f01601f191660200182016040528015611ecb5781602001600182028036833780820191505090505b509050600082602001820190505b600115611f2e578080600190039150507f3031323334353637383961626364656600000000000000000000000000000000600a86061a8153600a8581611f2257611f21612fa4565b5b04945060008503611ed9575b819350505050919050565b60007f01ffc9a7000000000000000000000000000000000000000000000000000000007bffffffffffffffffffffffffffffffffffffffffffffffffffffffff1916827bffffffffffffffffffffffffffffffffffffffffffffffffffffffff1916149050919050565b611fae8383836121ba565b61206257600073ffffffffffffffffffffffffffffffffffffffff168373ffffffffffffffffffffffffffffffffffffffff160361202357806040517f7e27328900000000000000000000000000000000000000000000000000000000815260040161201a9190612536565b60405180910390fd5b81816040517f177e802f000000000000000000000000000000000000000000000000000000008152600401612059929190612a45565b60405180910390fd5b505050565b600080600090507a184f03e93ff9f4daa797ed6e38ed64bf6a1f01000000000000000083106120c5577a184f03e93ff9f4daa797ed6e38ed64bf6a1f01000000000000000083816120bb576120ba612fa4565b5b0492506040810190505b6d04ee2d6d415b85acef81000000008310612102576d04ee2d6d415b85acef810000000083816120f8576120f7612fa4565b5b0492506020810190505b662386f26fc10000831061213157662386f26fc10000838161212757612126612fa4565b5b0492506010810190505b6305f5e100831061215a576305f5e10083816121505761214f612fa4565b5b0492506008810190505b612710831061217f57612710838161217557612174612fa4565b5b0492506004810190505b606483106121a2576064838161219857612197612fa4565b5b0492506002810190505b600a83106121b1576001810190505b80915050919050565b60008073ffffffffffffffffffffffffffffffffffffffff168373ffffffffffffffffffffffffffffffffffffffff161415801561227257508273ffffffffffffffffffffffffffffffffffffffff168473ffffffffffffffffffffffffffffffffffffffff16148061223357506122328484610ba5565b5b8061227157508273ffffffffffffffffffffffffffffffffffffffff1661225983610d22565b73ffffffffffffffffffffffffffffffffffffffff16145b5b90509392505050565b6000604051905090565b600080fd5b600080fd5b60007fffffffff0000000000000000000000000000000000000000000000000000000082169050919050565b6122c48161228f565b81146122cf57600080fd5b50565b6000813590506122e1816122bb565b92915050565b6000602082840312156122fd576122fc612285565b5b600061230b848285016122d2565b91505092915050565b60008115159050919050565b61232981612314565b82525050565b60006020820190506123446000830184612320565b92915050565b600081519050919050565b600082825260208201905092915050565b60005b83811015612384578082015181840152602081019050612369565b60008484015250505050565b6000601f19601f8301169050919050565b60006123ac8261234a565b6123b68185612355565b93506123c6818560208601612366565b6123cf81612390565b840191505092915050565b600060208201905081810360008301526123f481846123a1565b905092915050565b6000819050919050565b61240f816123fc565b811461241a57600080fd5b50565b60008135905061242c81612406565b92915050565b60006020828403121561244857612447612285565b5b60006124568482850161241d565b91505092915050565b600073ffffffffffffffffffffffffffffffffffffffff82169050919050565b600061248a8261245f565b9050919050565b61249a8161247f565b82525050565b60006020820190506124b56000830184612491565b92915050565b6124c48161247f565b81146124cf57600080fd5b50565b6000813590506124e1816124bb565b92915050565b600080604083850312156124fe576124fd612285565b5b600061250c858286016124d2565b925050602061251d8582860161241d565b9150509250929050565b612530816123fc565b82525050565b600060208201905061254b6000830184612527565b92915050565b600080fd5b600080fd5b600080fd5b60008083601f84011261257657612575612551565b5b8235905067ffffffffffffffff81111561259357612592612556565b5b6020830191508360018202830111156125af576125ae61255b565b5b9250929050565b6000806000604084860312156125cf576125ce612285565b5b60006125dd8682870161241d565b935050602084013567ffffffffffffffff8111156125fe576125fd61228a565b5b61260a86828701612560565b92509250509250925092565b60008060006060848603121561262f5761262e612285565b5b600061263d868287016124d2565b935050602061264e868287016124d2565b925050604061265f8682870161241d565b9150509250925092565b60006020828403121561267f5761267e612285565b5b600061268d848285016124d2565b91505092915050565b600080602083850312156126ad576126ac612285565b5b600083013567ffffffffffffffff8111156126cb576126ca61228a565b5b6126d785828601612560565b92509250509250929050565b6126ec81612314565b81146126f757600080fd5b50565b600081359050612709816126e3565b92915050565b6000806040838503121561272657612725612285565b5b6000612734858286016124d2565b9250506020612745858286016126fa565b9150509250929050565b600080fd5b7f4e487b7100000000000000000000000000000000000000000000000000000000600052604160045260246000fd5b61278c82612390565b810181811067ffffffffffffffff821117156127ab576127aa612754565b5b80604052505050565b60006127be61227b565b90506127ca8282612783565b919050565b600067ffffffffffffffff8211156127ea576127e9612754565b5b6127f382612390565b9050602081019050919050565b82818337600083830152505050565b600061282261281d846127cf565b6127b4565b90508281526020810184848401111561283e5761283d61274f565b5b612849848285612800565b509392505050565b600082601f83011261286657612865612551565b5b813561287684826020860161280f565b91505092915050565b6000806000806080858703121561289957612898612285565b5b60006128a7878288016124d2565b94505060206128b8878288016124d2565b93505060406128c98782880161241d565b925050606085013567ffffffffffffffff8111156128ea576128e961228a565b5b6128f687828801612851565b91505092959194509250565b6000806040838503121561291957612918612285565b5b6000612927858286016124d2565b9250506020612938858286016124d2565b9150509250929050565b7f4e487b7100000000000000000000000000000000000000000000000000000000600052602260045260246000fd5b6000600282049050600182168061298957607f821691505b60208210810361299c5761299b612942565b5b50919050565b7f4f6e6c7920676f762063616e2063616c6c000000000000000000000000000000600082015250565b60006129d8601183612355565b91506129e3826129a2565b602082019050919050565b60006020820190508181036000830152612a07816129cb565b9050919050565b6000606082019050612a236000830186612491565b612a306020830185612527565b612a3d6040830184612491565b949350505050565b6000604082019050612a5a6000830185612491565b612a676020830184612527565b9392505050565b7f4e487b7100000000000000000000000000000000000000000000000000000000600052603260045260246000fd5b7f4e6f74206f776e656420627920676f7600000000000000000000000000000000600082015250565b6000612ad3601083612355565b9150612ade82612a9d565b602082019050919050565b60006020820190508181036000830152612b0281612ac6565b9050919050565b7f4e487b7100000000000000000000000000000000000000000000000000000000600052601160045260246000fd5b6000612b43826123fc565b91507fffffffffffffffffffffffffffffffffffffffffffffffffffffffffffffffff8203612b7557612b74612b09565b5b600182019050919050565b60008190508160005260206000209050919050565b60006020601f8301049050919050565b600082821b905092915050565b600060088302612be27fffffffffffffffffffffffffffffffffffffffffffffffffffffffffffffffff82612ba5565b612bec8683612ba5565b95508019841693508086168417925050509392505050565b6000819050919050565b6000612c29612c24612c1f846123fc565b612c04565b6123fc565b9050919050565b6000819050919050565b612c4383612c0e565b612c57612c4f82612c30565b848454612bb2565b825550505050565b600090565b612c6c612c5f565b612c77818484612c3a565b505050565b5b81811015612c9b57612c90600082612c64565b600181019050612c7d565b5050565b601f821115612ce057612cb181612b80565b612cba84612b95565b81016020851015612cc9578190505b612cdd612cd585612b95565b830182612c7c565b50505b505050565b600082821c905092915050565b6000612d0360001984600802612ce5565b1980831691505092915050565b6000612d1c8383612cf2565b9150826002028217905092915050565b612d358261234a565b67ffffffffffffffff811115612d4e57612d4d612754565b5b612d588254612971565b612d63828285612c9f565b600060209050601f831160018114612d965760008415612d84578287015190505b612d8e8582612d10565b865550612df6565b601f198416612da486612b80565b60005b82811015612dcc57848901518255600182019150602085019450602081019050612da7565b86831015612de95784890151612de5601f891682612cf2565b8355505b6001600288020188555050505b505050505050565b600081519050919050565b600082825260208201905092915050565b6000612e2582612dfe565b612e2f8185612e09565b9350612e3f818560208601612366565b612e4881612390565b840191505092915050565b6000608082019050612e686000830187612491565b612e756020830186612491565b612e826040830185612527565b8181036060830152612e948184612e1a565b905095945050505050565b600081519050612eae816122bb565b92915050565b600060208284031215612eca57612ec9612285565b5b6000612ed884828501612e9f565b91505092915050565b600081905092915050565b6000612ef78261234a565b612f018185612ee1565b9350612f11818560208601612366565b80840191505092915050565b6000612f298285612eec565b9150612f358284612eec565b91508190509392505050565b6000612f4c826123fc565b9150612f57836123fc565b9250828203905081811115612f6f57612f6e612b09565b5b92915050565b7f4e487b7100000000000000000000000000000000000000000000000000000000600052603160045260246000fd5b7f4e487b7100000000000000000000000000000000000000000000000000000000600052601260045260246000fdfea26469706673582212202ebb18bc5d07cb97e8cc7e4293138a29485f556a586f57f9b1f8307013ab046064736f6c634300081c0033",
  "linkReferences": {},
  "deployedLinkReferences": {}
}