{
  "_format": "hh-sol-artifact-1",
  "contractName": "LandNFT",
  "sourceName": "contracts/LandNFT.sol",
  "abi": [
    {
      "inputs": [],
      "stateMutability": "nonpayable",
      "type": "constructor"
    },
    {
      "inputs": [
        {
          "internalType": "address",
          "name": "sender",
          "type": "address"
        },
        {
          "internalType": "uint256",
          "name": "tokenId",
          "type": "uint256"
        },
        {
          "internalType": "address",
          "name": "owner",
          "type": "address"
        }
      ],
      "name": "ERC721IncorrectOwner",
      "type": "error"
    },
    {
      "inputs": [
        {
          "internalType": "address",
          "name": "operator",
          "type": "address"
        },
        {
          "internalType": "uint256",
          "name": "tokenId",
          "type": "uint256"
        }
      ],
      "name": "ERC721InsufficientApproval",
      "type": "error"
    },
    {
      "inputs": [
        {
          "internalType": "address",
          "name": "approver",
          "type": "address"
        }
      ],
      "name": "ERC721InvalidApprover",
      "type": "error"
    },
    {
      "inputs": [
        {
          "internalType": "address",
          "name": "operator",
          "type": "address"
        }
      ],
      "name": "ERC721InvalidOperator",
      "type": "error"
    },
    {
      "inputs": [
        {
          "internalType": "address",
          "name": "owner",
          "type": "address"
        }
      ],
      "name": "ERC721InvalidOwner",
      "type": "error"
    },
    {
      "inputs": [
        {
          "internalType": "address",
          "name": "receiver",
          "type": "address"
        }
      ],
      "name": "ERC721InvalidReceiver",
      "type": "error"
    },
    {
      "inputs": [
        {
          "internalType": "address",
          "name": "sender",
          "type": "address"
        }
      ],
      "name": "ERC721InvalidSender",
      "type": "error"
    },
    {
      "inputs": [
        {
          "internalType": "uint256",
          "name": "tokenId",
          "type": "uint256"
        }
      ],
      "name": "ERC721NonexistentToken",
      "type": "error"
    },
    {
      "anonymous": false,
      "inputs": [
        {
          "indexed": true,
          "internalType": "address",
          "name": "owner",
          "type": "address"
        },
        {
          "indexed": true,
          "internalType": "address",
          "name": "approved",
          "type": "address"
        },
        {
          "indexed": true,
          "internalType": "uint256",
          "name": "tokenId",
          "type": "uint256"
        }
      ],
      "name": "Approval",
      "type": "event"
    },
    {
      "anonymous": false,
      "inputs": [
        {
          "indexed": true,
          "internalType": "address",
          "name": "owner",
          "type": "address"
        },
        {
          "indexed": true,
          "internalType": "address",
          "name": "operator",
          "type": "address"
        },
        {
          "indexed": false,
          "internalType": "bool",
          "name": "approved",
          "type": "bool"
        }
      ],
      "name": "ApprovalForAll",
      "type": "event"
    },
    {
      "anonymous": false,
      "inputs": [
        {
          "indexed": false,
          "internalType": "uint256",
          "name": "_fromTokenId",
          "type": "uint256"
        },
        {
          "indexed": false,
          "internalType": "uint256",
          "name": "_toTokenId",
          "type": "uint256"
        }
      ],
      "name": "BatchMetadataUpdate",
      "type": "event"
    },
    {
      "anonymous": false,
      "inputs": [
        {
          "indexed": true,
          "internalType": "uint256",
          "name": "tokenId",
          "type": "uint256"
        },
        {
          "indexed": true,
          "internalType": "address",
          "name": "buyer",
          "type": "address"
        }
      ],
      "name": "LandPurchased",
      "type": "event"
    },
    {
      "anonymous": false,
      "inputs": [
        {
          "indexed": false,
          "internalType": "uint256",
          "name": "_tokenId",
          "type": "uint256"
        }
      ],
      "name": "MetadataUpdate",
      "type": "event"
    },
    {
      "anonymous": false,
      "inputs": [
        {
          "indexed": true,
          "internalType": "address",
          "name": "from",
          "type": "address"
        },
        {
          "indexed": true,
          "internalType": "address",
          "name": "to",
          "type": "address"
        },
        {
          "indexed": true,
          "internalType": "uint256",
          "name": "tokenId",
          "type": "uint256"
        }
      ],
      "name": "Transfer",
      "type": "event"
    },
    {
      "inputs": [
        {
          "internalType": "address",
          "name": "to",
          "type": "address"
        },
        {
          "internalType": "uint256",
          "name": "tokenId",
          "type": "uint256"
        }
      ],
      "name": "approve",
      "outputs": [],
      "stateMutability": "nonpayable",
      "type": "function"
    },
    {
      "inputs": [
        {
          "internalType": "address",
          "name": "owner",
          "type": "address"
        }
      ],
      "name": "balanceOf",
      "outputs": [
        {
          "internalType": "uint256",
          "name": "",
          "type": "uint256"
        }
      ],
      "stateMutability": "view",
      "type": "function"
    },
    {
      "inputs": [
        {
          "internalType": "uint256",
          "name": "tokenId",
          "type": "uint256"
        }
      ],
      "name": "getApproved",
      "outputs": [
        {
          "internalType": "address",
          "name": "",
          "type": "address"
        }
      ],
      "stateMutability": "view",
      "type": "function"
    },
    {
      "inputs": [],
      "name": "govAddress",
      "outputs": [
        {
          "internalType": "address",
          "name": "",
          "type": "address"
        }
      ],
      "stateMutability": "view",
      "type": "function"
    },
    {
      "inputs": [
        {
          "internalType": "address",
          "name": "owner",
          "type": "address"
        },
        {
          "internalType": "address",
          "name": "operator",
          "type": "address"
        }
      ],
      "name": "isApprovedForAll",
      "outputs": [
        {
          "internalType": "bool",
          "name": "",
          "type": "bool"
        }
      ],
      "stateMutability": "view",
      "type": "function"
    },
    {
      "inputs": [
        {
          "internalType": "string",
          "name": "_cid",
          "type": "string"
        }
      ],
      "name": "mintLand",
      "outputs": [
        {
          "internalType": "uint256",
          "name": "",
          "type": "uint256"
        }
      ],
      "stateMutability": "nonpayable",
      "type": "function"
    },
    {
      "inputs": [],
      "name": "name",
      "outputs": [
        {
          "internalType": "string",
          "name": "",
          "type": "string"
        }
      ],
      "stateMutability": "view",
      "type": "function"
    },
    {
      "inputs": [
        {
          "internalType": "uint256",
          "name": "tokenId",
          "type": "uint256"
        }
      ],
      "name": "ownerOf",
      "outputs": [
        {
          "internalType": "address",
          "name": "",
          "type": "address"
        }
      ],
      "stateMutability": "view",
      "type": "function"
    },
    {
      "inputs": [
        {
          "internalType": "uint256",
          "name": "tokenId",
          "type": "uint256"
        }
      ],
      "name": "purchaseLand",
      "outputs": [],
      "stateMutability": "nonpayable",
      "type": "function"
    },
    {
      "inputs": [
        {
          "internalType": "address",
          "name": "from",
          "type": "address"
        },
        {
          "internalType": "address",
          "name": "to",
          "type": "address"
        },
        {
          "internalType": "uint256",
          "name": "tokenId",
          "type": "uint256"
        }
      ],
      "name": "safeTransferFrom",
      "outputs": [],
      "stateMutability": "nonpayable",
      "type": "function"
    },
    {
      "inputs": [
        {
          "internalType": "address",
          "name": "from",
          "type": "address"
        },
        {
          "internalType": "address",
          "name": "to",
          "type": "address"
        },
        {
          "internalType": "uint256",
          "name": "tokenId",
          "type": "uint256"
        },
        {
          "internalType": "bytes",
          "name": "data",
          "type": "bytes"
        }
      ],
      "name": "safeTransferFrom",
      "outputs": [],
      "stateMutability": "nonpayable",
      "type": "function"
    },
    {
      "inputs": [
        {
          "internalType": "address",
          "name": "operator",
          "type": "address"
        },
        {
          "internalType": "bool",
          "name": "approved",
          "type": "bool"
        }
      ],
      "name": "setApprovalForAll",
      "outputs": [],
      "stateMutability": "nonpayable",
      "type": "function"
    },
    {
      "inputs": [
        {
          "internalType": "bytes4",
          "name": "interfaceId",
          "type": "bytes4"
        }
      ],
      "name": "supportsInterface",
      "outputs": [
        {
          "internalType": "bool",
          "name": "",
          "type": "bool"
        }
      ],
      "stateMutability": "view",
      "type": "function"
    },
    {
      "inputs": [],
      "name": "symbol",
      "outputs": [
        {
          "internalType": "string",
          "name": "",
          "type": "string"
        }
      ],
      "stateMutability": "view",
      "type": "function"
    },
    {
      "inputs": [
        {
          "internalType": "uint256",
          "name": "tokenId",
          "type": "uint256"
        }
      ],
      "name": "tokenURI",
      "outputs": [
        {
          "internalType": "string",
          "name": "",
          "type": "string"
        }
      ],
      "stateMutability": "view",
      "type": "function"
    },
    {
      "inputs": [
        {
          "internalType": "address",
          "name": "from",
          "type": "address"
        },
        {
          "internalType": "address",
          "name": "to",
          "type": "address"
        },
        {
          "internalType": "uint256",
          "name": "tokenId",
          "type": "uint256"
        }
      ],
      "name": "transferFrom",
      "outputs": [],
      "stateMutability": "nonpayable",
      "type": "function"
    },
    {
      "inputs": [
        {
          "internalType": "uint256",
          "name": "tokenId",
          "type": "uint256"
        },
        {
          "internalType": "string",
          "name": "newCid",
          "type": "string"
        }
      ],
      "name": "updateTokenURI",
      "outputs": [],
      "stateMutability": "nonpayable",
      "type": "function"
    }
  ],
  "bytecode": "0x6080604052600060075534801561001557600080fd5b506040518060400160405280600781526020017f4c616e644e4654000000000000000000000000000000000000000000000000008152506040518060400160405280600481526020017f4c414e44000000000000000000000000000000000000000000000000000000008152508160009081610091919061033a565b5080600190816100a1919061033a565b50505033600860006101000a81548173ffffffffffffffffffffffffffffffffffffffff021916908373ffffffffffffffffffffffffffffffffffffffff16021790555061040c565b600081519050919050565b7f4e487b7100000000000000000000000000000000000000000000000000000000600052604160045260246000fd5b7f4e487b7100000000000000000000000000000000000000000000000000000000600052602260045260246000fd5b6000600282049050600182168061016b57607f821691505b60208210810361017e5761017d610124565b5b50919050565b60008190508160005260206000209050919050565b60006020601f8301049050919050565b600082821b905092915050565b6000600883026101e67fffffffffffffffffffffffffffffffffffffffffffffffffffffffffffffffff826101a9565b6101f086836101a9565b95508019841693508086168417925050509392505050565b6000819050919050565b6000819050919050565b600061023761023261022d84610208565b610212565b610208565b9050919050565b6000819050919050565b6102518361021c565b61026561025d8261023e565b8484546101b6565b825550505050565b600090565b61027a61026d565b610285818484610248565b505050565b5b818110156102a95761029e600082610272565b60018101905061028b565b5050565b601f8211156102ee576102bf81610184565b6102c884610199565b810160208510156102d7578190505b6102eb6102e385610199565b83018261028a565b50505b505050565b600082821c905092915050565b6000610311600019846008026102f3565b1980831691505092915050565b600061032a8383610300565b9150826002028217905092915050565b610343826100ea565b67ffffffffffffffff81111561035c5761035b6100f5565b5b6103668254610153565b6103718282856102ad565b600060209050601f8311600181146103a45760008415610392578287015190505b61039c858261031e565b865550610404565b601f1984166103b286610184565b60005b828110156103da578489015182556001820191506020850194506020810190506103b5565b868310156103f757848901516103f3601f891682610300565b8355505b6001600288020188555050505b505050505050565b6129ca8061041b6000396000f3fe608060405234801561001057600080fd5b506004361061010b5760003560e01c80636352211e116100a2578063a027c4e811610071578063a027c4e8146102b6578063a22cb465146102e6578063b88d4fde14610302578063c87b56dd1461031e578063e985e9c51461034e5761010b565b80636352211e1461021c57806370a082311461024c5780638009d5d71461027c57806395d89b41146102985761010b565b806318e97fd1116100de57806318e97fd1146101aa57806323b872dd146101c657806342842e0e146101e257806346008a07146101fe5761010b565b806301ffc9a71461011057806306fdde0314610140578063081812fc1461015e578063095ea7b31461018e575b600080fd5b61012a60048036038101906101259190611d4e565b61037e565b6040516101379190611d96565b60405180910390f35b6101486103df565b6040516101559190611e41565b60405180910390f35b61017860048036038101906101739190611e99565b610471565b6040516101859190611f07565b60405180910390f35b6101a860048036038101906101a39190611f4e565b61048d565b005b6101c460048036038101906101bf9190611ff3565b6104a3565b005b6101e060048036038101906101db9190612053565b610586565b005b6101fc60048036038101906101f79190612053565b610688565b005b6102066106a8565b6040516102139190611f07565b60405180910390f35b61023660048036038101906102319190611e99565b6106ce565b6040516102439190611f07565b60405180910390f35b610266600480360381019061026191906120a6565b6106e0565b60405161027391906120e2565b60405180910390f35b61029660048036038101906102919190611e99565b61079a565b005b6102a06108a6565b6040516102ad9190611e41565b60405180910390f35b6102d060048036038101906102cb91906120fd565b610938565b6040516102dd91906120e2565b60405180910390f35b61030060048036038101906102fb9190612176565b610a6f565b005b61031c600480360381019061031791906122e6565b610a85565b005b61033860048036038101906103339190611e99565b610aaa565b6040516103459190611e41565b60405180910390f35b61036860048036038101906103639190612369565b610bbd565b6040516103759190611d96565b60405180910390f35b6000634906490660e01b7bffffffffffffffffffffffffffffffffffffffffffffffffffffffff1916827bffffffffffffffffffffffffffffffffffffffffffffffffffffffff191614806103d857506103d782610c51565b5b9050919050565b6060600080546103ee906123d8565b80601f016020809104026020016040519081016040528092919081815260200182805461041a906123d8565b80156104675780601f1061043c57610100808354040283529160200191610467565b820191906000526020600020905b81548152906001019060200180831161044a57829003601f168201915b5050505050905090565b600061047c82610d33565b5061048682610dbb565b9050919050565b61049f828261049a610df8565b610e00565b5050565b600860009054906101000a900473ffffffffffffffffffffffffffffffffffffffff1673ffffffffffffffffffffffffffffffffffffffff163373ffffffffffffffffffffffffffffffffffffffff1614610533576040517f08c379a000000000000000000000000000000000000000000000000000000000815260040161052a90612455565b60405180910390fd5b6105818383838080601f016020809104026020016040519081016040528093929190818152602001838380828437600081840152601f19601f82011690508083019250505050505050610e12565b505050565b600073ffffffffffffffffffffffffffffffffffffffff168273ffffffffffffffffffffffffffffffffffffffff16036105f85760006040517f64a0ae920000000000000000000000000000000000000000000000000000000081526004016105ef9190611f07565b60405180910390fd5b600061060c8383610607610df8565b610e6e565b90508373ffffffffffffffffffffffffffffffffffffffff168173ffffffffffffffffffffffffffffffffffffffff1614610682578382826040517f64283d7b00000000000000000000000000000000000000000000000000000000815260040161067993929190612475565b60405180910390fd5b50505050565b6106a383838360405180602001604052806000815250610a85565b505050565b600860009054906101000a900473ffffffffffffffffffffffffffffffffffffffff1681565b60006106d982610d33565b9050919050565b60008073ffffffffffffffffffffffffffffffffffffffff168273ffffffffffffffffffffffffffffffffffffffff16036107535760006040517f89c62b6400000000000000000000000000000000000000000000000000000000815260040161074a9190611f07565b60405180910390fd5b600360008373ffffffffffffffffffffffffffffffffffffffff1673ffffffffffffffffffffffffffffffffffffffff168152602001908152602001600020549050919050565b600860009054906101000a900473ffffffffffffffffffffffffffffffffffffffff1673ffffffffffffffffffffffffffffffffffffffff166107dc826106ce565b73ffffffffffffffffffffffffffffffffffffffff1614610832576040517f08c379a0000000000000000000000000000000000000000000000000000000008152600401610829906124f8565b60405180910390fd5b61085f600860009054906101000a900473ffffffffffffffffffffffffffffffffffffffff163383611088565b3373ffffffffffffffffffffffffffffffffffffffff16817f349dfbfc5131b8cc0d98594c2fbb93e8c6bba0486d6bd50dde81212bf50ad2cc60405160405180910390a350565b6060600180546108b5906123d8565b80601f01602080910402602001604051908101604052809291908181526020018280546108e1906123d8565b801561092e5780601f106109035761010080835404028352916020019161092e565b820191906000526020600020905b81548152906001019060200180831161091157829003601f168201915b5050505050905090565b6000600860009054906101000a900473ffffffffffffffffffffffffffffffffffffffff1673ffffffffffffffffffffffffffffffffffffffff163373ffffffffffffffffffffffffffffffffffffffff16146109ca576040517f08c379a00000000000000000000000000000000000000000000000000000000081526004016109c190612455565b60405180910390fd5b600060075490506109fd600860009054906101000a900473ffffffffffffffffffffffffffffffffffffffff16826111f5565b610a4b8185858080601f016020809104026020016040519081016040528093929190818152602001838380828437600081840152601f19601f82011690508083019250505050505050610e12565b600160076000828254610a5e9190612547565b925050819055508091505092915050565b610a81610a7a610df8565b8383611213565b5050565b610a90848484610586565b610aa4610a9b610df8565b85858585611382565b50505050565b6060610ab582610d33565b506000600660008481526020019081526020016000208054610ad6906123d8565b80601f0160208091040260200160405190810160405280929190818152602001828054610b02906123d8565b8015610b4f5780601f10610b2457610100808354040283529160200191610b4f565b820191906000526020600020905b815481529060010190602001808311610b3257829003601f168201915b505050505090506000610b60611533565b90506000815103610b75578192505050610bb8565b600082511115610baa578082604051602001610b929291906125b7565b60405160208183030381529060405292505050610bb8565b610bb38461154a565b925050505b919050565b6000600560008473ffffffffffffffffffffffffffffffffffffffff1673ffffffffffffffffffffffffffffffffffffffff16815260200190815260200160002060008373ffffffffffffffffffffffffffffffffffffffff1673ffffffffffffffffffffffffffffffffffffffff16815260200190815260200160002060009054906101000a900460ff16905092915050565b60007f80ac58cd000000000000000000000000000000000000000000000000000000007bffffffffffffffffffffffffffffffffffffffffffffffffffffffff1916827bffffffffffffffffffffffffffffffffffffffffffffffffffffffff19161480610d1c57507f5b5e139f000000000000000000000000000000000000000000000000000000007bffffffffffffffffffffffffffffffffffffffffffffffffffffffff1916827bffffffffffffffffffffffffffffffffffffffffffffffffffffffff1916145b80610d2c5750610d2b826115b3565b5b9050919050565b600080610d3f8361161d565b9050600073ffffffffffffffffffffffffffffffffffffffff168173ffffffffffffffffffffffffffffffffffffffff1603610db257826040517f7e273289000000000000000000000000000000000000000000000000000000008152600401610da991906120e2565b60405180910390fd5b80915050919050565b60006004600083815260200190815260200160002060009054906101000a900473ffffffffffffffffffffffffffffffffffffffff169050919050565b600033905090565b610e0d838383600161165a565b505050565b80600660008481526020019081526020016000209081610e329190612787565b507ff8e1a15aba9398e019f0b49df1a4fde98ee17ae345cb5f6b5e2c27f5033e8ce782604051610e6291906120e2565b60405180910390a15050565b600080610e7a8461161d565b9050600073ffffffffffffffffffffffffffffffffffffffff168373ffffffffffffffffffffffffffffffffffffffff1614610ebc57610ebb81848661181f565b5b600073ffffffffffffffffffffffffffffffffffffffff168173ffffffffffffffffffffffffffffffffffffffff1614610f4d57610efe60008560008061165a565b6001600360008373ffffffffffffffffffffffffffffffffffffffff1673ffffffffffffffffffffffffffffffffffffffff168152602001908152602001600020600082825403925050819055505b600073ffffffffffffffffffffffffffffffffffffffff168573ffffffffffffffffffffffffffffffffffffffff1614610fd0576001600360008773ffffffffffffffffffffffffffffffffffffffff1673ffffffffffffffffffffffffffffffffffffffff168152602001908152602001600020600082825401925050819055505b846002600086815260200190815260200160002060006101000a81548173ffffffffffffffffffffffffffffffffffffffff021916908373ffffffffffffffffffffffffffffffffffffffff160217905550838573ffffffffffffffffffffffffffffffffffffffff168273ffffffffffffffffffffffffffffffffffffffff167fddf252ad1be2c89b69c2b068fc378daa952ba7f163c4a11628f55a4df523b3ef60405160405180910390a4809150509392505050565b600073ffffffffffffffffffffffffffffffffffffffff168273ffffffffffffffffffffffffffffffffffffffff16036110fa5760006040517f64a0ae920000000000000000000000000000000000000000000000000000000081526004016110f19190611f07565b60405180910390fd5b600061110883836000610e6e565b9050600073ffffffffffffffffffffffffffffffffffffffff168173ffffffffffffffffffffffffffffffffffffffff160361117b57816040517f7e27328900000000000000000000000000000000000000000000000000000000815260040161117291906120e2565b60405180910390fd5b8373ffffffffffffffffffffffffffffffffffffffff168173ffffffffffffffffffffffffffffffffffffffff16146111ef578382826040517f64283d7b0000000000000000000000000000000000000000000000000000000081526004016111e693929190612475565b60405180910390fd5b50505050565b61120f8282604051806020016040528060008152506118e3565b5050565b600073ffffffffffffffffffffffffffffffffffffffff168273ffffffffffffffffffffffffffffffffffffffff160361128457816040517f5b08ba1800000000000000000000000000000000000000000000000000000000815260040161127b9190611f07565b60405180910390fd5b80600560008573ffffffffffffffffffffffffffffffffffffffff1673ffffffffffffffffffffffffffffffffffffffff16815260200190815260200160002060008473ffffffffffffffffffffffffffffffffffffffff1673ffffffffffffffffffffffffffffffffffffffff16815260200190815260200160002060006101000a81548160ff0219169083151502179055508173ffffffffffffffffffffffffffffffffffffffff168373ffffffffffffffffffffffffffffffffffffffff167f17307eab39ab6107e8899845ad3d59bd9653f200f220920489ca2b5937696c31836040516113759190611d96565b60405180910390a3505050565b60008373ffffffffffffffffffffffffffffffffffffffff163b111561152c578273ffffffffffffffffffffffffffffffffffffffff1663150b7a02868685856040518563ffffffff1660e01b81526004016113e194939291906128ae565b6020604051808303816000875af192505050801561141d57506040513d601f19601f8201168201806040525081019061141a919061290f565b60015b6114a1573d806000811461144d576040519150601f19603f3d011682016040523d82523d6000602084013e611452565b606091505b50600081510361149957836040517f64a0ae920000000000000000000000000000000000000000000000000000000081526004016114909190611f07565b60405180910390fd5b805181602001fd5b63150b7a0260e01b7bffffffffffffffffffffffffffffffffffffffffffffffffffffffff1916817bffffffffffffffffffffffffffffffffffffffffffffffffffffffff19161461152a57836040517f64a0ae920000000000000000000000000000000000000000000000000000000081526004016115219190611f07565b60405180910390fd5b505b5050505050565b606060405180602001604052806000815250905090565b606061155582610d33565b506000611560611533565b9050600081511161158057604051806020016040528060008152506115ab565b8061158a84611907565b60405160200161159b9291906125b7565b6040516020818303038152906040525b915050919050565b60007f01ffc9a7000000000000000000000000000000000000000000000000000000007bffffffffffffffffffffffffffffffffffffffffffffffffffffffff1916827bffffffffffffffffffffffffffffffffffffffffffffffffffffffff1916149050919050565b60006002600083815260200190815260200160002060009054906101000a900473ffffffffffffffffffffffffffffffffffffffff169050919050565b80806116935750600073ffffffffffffffffffffffffffffffffffffffff168273ffffffffffffffffffffffffffffffffffffffff1614155b156117c75760006116a384610d33565b9050600073ffffffffffffffffffffffffffffffffffffffff168373ffffffffffffffffffffffffffffffffffffffff161415801561170e57508273ffffffffffffffffffffffffffffffffffffffff168173ffffffffffffffffffffffffffffffffffffffff1614155b8015611721575061171f8184610bbd565b155b1561176357826040517fa9fbf51f00000000000000000000000000000000000000000000000000000000815260040161175a9190611f07565b60405180910390fd5b81156117c557838573ffffffffffffffffffffffffffffffffffffffff168273ffffffffffffffffffffffffffffffffffffffff167f8c5be1e5ebec7d5bd14f71427d1e84f3dd0314c0f7b2291e5b200ac8c7c3b92560405160405180910390a45b505b836004600085815260200190815260200160002060006101000a81548173ffffffffffffffffffffffffffffffffffffffff021916908373ffffffffffffffffffffffffffffffffffffffff16021790555050505050565b61182a8383836119d5565b6118de57600073ffffffffffffffffffffffffffffffffffffffff168373ffffffffffffffffffffffffffffffffffffffff160361189f57806040517f7e27328900000000000000000000000000000000000000000000000000000000815260040161189691906120e2565b60405180910390fd5b81816040517f177e802f0000000000000000000000000000000000000000000000000000000081526004016118d592919061293c565b60405180910390fd5b505050565b6118ed8383611a96565b6119026118f8610df8565b6000858585611382565b505050565b60606000600161191684611b8f565b01905060008167ffffffffffffffff811115611935576119346121bb565b5b6040519080825280601f01601f1916602001820160405280156119675781602001600182028036833780820191505090505b509050600082602001820190505b6001156119ca578080600190039150507f3031323334353637383961626364656600000000000000000000000000000000600a86061a8153600a85816119be576119bd612965565b5b04945060008503611975575b819350505050919050565b60008073ffffffffffffffffffffffffffffffffffffffff168373ffffffffffffffffffffffffffffffffffffffff1614158015611a8d57508273ffffffffffffffffffffffffffffffffffffffff168473ffffffffffffffffffffffffffffffffffffffff161480611a4e5750611a4d8484610bbd565b5b80611a8c57508273ffffffffffffffffffffffffffffffffffffffff16611a7483610dbb565b73ffffffffffffffffffffffffffffffffffffffff16145b5b90509392505050565b600073ffffffffffffffffffffffffffffffffffffffff168273ffffffffffffffffffffffffffffffffffffffff1603611b085760006040517f64a0ae92000000000000000000000000000000000000000000000000000000008152600401611aff9190611f07565b60405180910390fd5b6000611b1683836000610e6e565b9050600073ffffffffffffffffffffffffffffffffffffffff168173ffffffffffffffffffffffffffffffffffffffff1614611b8a5760006040517f73c6ac6e000000000000000000000000000000000000000000000000000000008152600401611b819190611f07565b60405180910390fd5b505050565b600080600090507a184f03e93ff9f4daa797ed6e38ed64bf6a1f0100000000000000008310611bed577a184f03e93ff9f4daa797ed6e38ed64bf6a1f0100000000000000008381611be357611be2612965565b5b0492506040810190505b6d04ee2d6d415b85acef81000000008310611c2a576d04ee2d6d415b85acef81000000008381611c2057611c1f612965565b5b0492506020810190505b662386f26fc100008310611c5957662386f26fc100008381611c4f57611c4e612965565b5b0492506010810190505b6305f5e1008310611c82576305f5e1008381611c7857611c77612965565b5b0492506008810190505b6127108310611ca7576127108381611c9d57611c9c612965565b5b0492506004810190505b60648310611cca5760648381611cc057611cbf612965565b5b0492506002810190505b600a8310611cd9576001810190505b80915050919050565b6000604051905090565b600080fd5b600080fd5b60007fffffffff0000000000000000000000000000000000000000000000000000000082169050919050565b611d2b81611cf6565b8114611d3657600080fd5b50565b600081359050611d4881611d22565b92915050565b600060208284031215611d6457611d63611cec565b5b6000611d7284828501611d39565b91505092915050565b60008115159050919050565b611d9081611d7b565b82525050565b6000602082019050611dab6000830184611d87565b92915050565b600081519050919050565b600082825260208201905092915050565b60005b83811015611deb578082015181840152602081019050611dd0565b60008484015250505050565b6000601f19601f8301169050919050565b6000611e1382611db1565b611e1d8185611dbc565b9350611e2d818560208601611dcd565b611e3681611df7565b840191505092915050565b60006020820190508181036000830152611e5b8184611e08565b905092915050565b6000819050919050565b611e7681611e63565b8114611e8157600080fd5b50565b600081359050611e9381611e6d565b92915050565b600060208284031215611eaf57611eae611cec565b5b6000611ebd84828501611e84565b91505092915050565b600073ffffffffffffffffffffffffffffffffffffffff82169050919050565b6000611ef182611ec6565b9050919050565b611f0181611ee6565b82525050565b6000602082019050611f1c6000830184611ef8565b92915050565b611f2b81611ee6565b8114611f3657600080fd5b50565b600081359050611f4881611f22565b92915050565b60008060408385031215611f6557611f64611cec565b5b6000611f7385828601611f39565b9250506020611f8485828601611e84565b9150509250929050565b600080fd5b600080fd5b600080fd5b60008083601f840112611fb357611fb2611f8e565b5b8235905067ffffffffffffffff811115611fd057611fcf611f93565b5b602083019150836001820283011115611fec57611feb611f98565b5b9250929050565b60008060006040848603121561200c5761200b611cec565b5b600061201a86828701611e84565b935050602084013567ffffffffffffffff81111561203b5761203a611cf1565b5b61204786828701611f9d565b92509250509250925092565b60008060006060848603121561206c5761206b611cec565b5b600061207a86828701611f39565b935050602061208b86828701611f39565b925050604061209c86828701611e84565b9150509250925092565b6000602082840312156120bc576120bb611cec565b5b60006120ca84828501611f39565b91505092915050565b6120dc81611e63565b82525050565b60006020820190506120f760008301846120d3565b92915050565b6000806020838503121561211457612113611cec565b5b600083013567ffffffffffffffff81111561213257612131611cf1565b5b61213e85828601611f9d565b92509250509250929050565b61215381611d7b565b811461215e57600080fd5b50565b6000813590506121708161214a565b92915050565b6000806040838503121561218d5761218c611cec565b5b600061219b85828601611f39565b92505060206121ac85828601612161565b9150509250929050565b600080fd5b7f4e487b7100000000000000000000000000000000000000000000000000000000600052604160045260246000fd5b6121f382611df7565b810181811067ffffffffffffffff82111715612212576122116121bb565b5b80604052505050565b6000612225611ce2565b905061223182826121ea565b919050565b600067ffffffffffffffff821115612251576122506121bb565b5b61225a82611df7565b9050602081019050919050565b82818337600083830152505050565b600061228961228484612236565b61221b565b9050828152602081018484840111156122a5576122a46121b6565b5b6122b0848285612267565b509392505050565b600082601f8301126122cd576122cc611f8e565b5b81356122dd848260208601612276565b91505092915050565b60008060008060808587031215612300576122ff611cec565b5b600061230e87828801611f39565b945050602061231f87828801611f39565b935050604061233087828801611e84565b925050606085013567ffffffffffffffff81111561235157612350611cf1565b5b61235d878288016122b8565b91505092959194509250565b600080604083850312156123805761237f611cec565b5b600061238e85828601611f39565b925050602061239f85828601611f39565b9150509250929050565b7f4e487b7100000000000000000000000000000000000000000000000000000000600052602260045260246000fd5b600060028204905060018216806123f057607f821691505b602082108103612403576124026123a9565b5b50919050565b7f4f6e6c7920676f762063616e2063616c6c000000000000000000000000000000600082015250565b600061243f601183611dbc565b915061244a82612409565b602082019050919050565b6000602082019050818103600083015261246e81612432565b9050919050565b600060608201905061248a6000830186611ef8565b61249760208301856120d3565b6124a46040830184611ef8565b949350505050565b7f4e6f74206f776e656420627920676f7620616e796d6f72650000000000000000600082015250565b60006124e2601883611dbc565b91506124ed826124ac565b602082019050919050565b60006020820190508181036000830152612511816124d5565b9050919050565b7f4e487b7100000000000000000000000000000000000000000000000000000000600052601160045260246000fd5b600061255282611e63565b915061255d83611e63565b925082820190508082111561257557612574612518565b5b92915050565b600081905092915050565b600061259182611db1565b61259b818561257b565b93506125ab818560208601611dcd565b80840191505092915050565b60006125c38285612586565b91506125cf8284612586565b91508190509392505050565b60008190508160005260206000209050919050565b60006020601f8301049050919050565b600082821b905092915050565b60006008830261263d7fffffffffffffffffffffffffffffffffffffffffffffffffffffffffffffffff82612600565b6126478683612600565b95508019841693508086168417925050509392505050565b6000819050919050565b600061268461267f61267a84611e63565b61265f565b611e63565b9050919050565b6000819050919050565b61269e83612669565b6126b26126aa8261268b565b84845461260d565b825550505050565b600090565b6126c76126ba565b6126d2818484612695565b505050565b5b818110156126f6576126eb6000826126bf565b6001810190506126d8565b5050565b601f82111561273b5761270c816125db565b612715846125f0565b81016020851015612724578190505b612738612730856125f0565b8301826126d7565b50505b505050565b600082821c905092915050565b600061275e60001984600802612740565b1980831691505092915050565b6000612777838361274d565b9150826002028217905092915050565b61279082611db1565b67ffffffffffffffff8111156127a9576127a86121bb565b5b6127b382546123d8565b6127be8282856126fa565b600060209050601f8311600181146127f157600084156127df578287015190505b6127e9858261276b565b865550612851565b601f1984166127ff866125db565b60005b8281101561282757848901518255600182019150602085019450602081019050612802565b868310156128445784890151612840601f89168261274d565b8355505b6001600288020188555050505b505050505050565b600081519050919050565b600082825260208201905092915050565b600061288082612859565b61288a8185612864565b935061289a818560208601611dcd565b6128a381611df7565b840191505092915050565b60006080820190506128c36000830187611ef8565b6128d06020830186611ef8565b6128dd60408301856120d3565b81810360608301526128ef8184612875565b905095945050505050565b60008151905061290981611d22565b92915050565b60006020828403121561292557612924611cec565b5b6000612933848285016128fa565b91505092915050565b60006040820190506129516000830185611ef8565b61295e60208301846120d3565b9392505050565b7f4e487b7100000000000000000000000000000000000000000000000000000000600052601260045260246000fdfea26469706673582212203339161aa769c0077b70398b26b375ea458163b3cafe1094bb81df8685e21f6064736f6c634300081c0033",
  "linkReferences": {},
  "deployedLinkReferences": {}
}